:020000041000EA
:1000000000B5324B212058609868022188439860DF
:10001000D860186158612E4B002199600221596106
:100020000121F02299502B49196001219960352056
:1000300000F044F80222904214D00621196600F024
:1000400034F8196E01211966002018661A6600F04E
:100050002CF8196E196E196E052000F02FF8012189
:100060000842F9D1002199601B49196000215960AB
:100070001A491B48016001219960EB211966A021F2
:10008000196600F012F800219960164914480160C1
:100090000121996001BC002800D000471248134993
:1000A000086003C880F30888084703B5996A0420EC
:1000B0000142FBD001200142F8D103BD02B5186610
:1000C0001866FFF7F2FF186E186E02BD00000240BE
:1000D000000000180000070000035F00212200005C
:1000E000F4000018222000A00001001008ED00E03C
:1000F00000000000000000000000000074B24E7A12
:1001000000200420F7010010C3010010C5010010F9
:10011000C1010010C1010010C1010010C101001097
:10012000C1010010C1010010C1010010C701001081
:10013000C1010010C1010010C9010010CB01001065
:10014000CD010010CD010010CD010010CD01001037
:10015000CD010010CD010010CD010010CD01001027
:10016000CD010010CD010010CD010010CD01001017
:10017000CD010010CD010010CD010010CD01001007
:10018000CD010010CD010010CD010010CD010010F7
:10019000CD010010CD010010CD010010CD010010E7
:1001A000CD010010CD010010CD010010CD010010D7
:1001B000CD010010CD010010CD010010CD010010C7
:1001C00000BE00BE00BE00BE00BE00BEEFF3058054
:1001D000103800BEF2EB8871F8580010205900105A
:1001E0003402001090A31AE700201F49086006C8D7
:1001F00081F3088810471D48006800282FD10DA4FE
:100200000ECC002902D000F012F8F9E71849194A7B
:10021000002000E001C19142FCD1174988471749ED
:1002200088471749884700BEFDE701C901C29A42C5
:10023000FBD3704720590010C0000020940200201A
:10024000F45A00100000042000000420F45A0010AA
:10025000001004200010042000000000704709482E
:1002600003F0F8F90047000008ED00E0000000D0BE
:100270009802002074060020451E0010550300104F
:100280003D1F00105756000006005250ABB360539C
:100290008C58001006005250861C03029C58001017
:1002A000060052505422A29DA8580010050052503A
:1002B000DE65F468F45A0010F8B5C0460448054BF2
:1002C00010B5834203D0044B002B00D0984710BDDB
:1002D0009402002094020020000000000648074914
:1002E000091A8910CB0F591810B5491003D0044BC7
:1002F000002B00D0984710BD9402002094020020EB
:100300000000000010B5074C2378002B09D1FFF73F
:10031000D5FF054B002B02D0044800E000BF0123AD
:10032000237010BD980300200000000080550010CD
:10033000054B10B5002B03D00449054800E000BF71
:10034000FFF7CCFF10BDC046000000009C0300205A
:1003500080550010F0B5D6464F464646C0B592B01F
:1003600004F068FA192000F0CBF80F2000F0C8F86C
:10037000D02380221B0692045A6204F02DFC1F2118
:100380001A2000F079F8002200211A2000F08CF8E1
:1003900000211A2000F0A0F8E022304CD20123689E
:1003A000272113402E4A02A813602E4B04220093EB
:1003B000052304F0C5FC2C4B042599462B4B2C4FF0
:1003C00098462C4E80223560520023681342FCD0A0
:1003D00063680F229A4604A85523192104F0CEFF22
:1003E000059804F045F802000B0006A8494603F002
:1003F000FDF8049804F03CF802000B000AA84146FE
:1004000003F0F4F853461A043900120C0EA803F056
:10041000EDF8002202A8002104F09AFF06A902A824
:1004200004F00AFF002202A8012104F091FF0AA9AA
:1004300002A804F001FFFA20C00000F0E5FD02A8C8
:1004400004F098FE0EA902A804F0F6FEFA20C000FF
:1004500000F0DAFD02A804F08DFEB3E700C004400E
:1004600000D0044068020020805500109055001014
:10047000A055001000E00440094A83009446402241
:10048000634410B51C68C0006240C0241440802240
:10049000520113431C60034B9C466044416010BDF5
:1004A00004C00140004001400A4B80009C460423E8
:1004B0006044002901D00C230821002A00D10B0040
:1004C000026853400C221A4080235B0118430260EB
:1004D0007047C04604C00140084B80009C46604401
:1004E000002905D080239B011843402303607047F7
:1004F000C0239B01184340230360F8E704C0014078
:100500000123D0228340120693629361094A83003B
:100510009446402263441968C0004A40C0211140FB
:100520008022520113431960034B9C46052360440B
:100530004360704704C0014000400140024B18680E
:100540008007C00F7047C04600C00640F8B5EFF303
:10055000108772B60D4E3368002BFCD0BFF35F8F4F
:100560000725CB08C01801230D40AB401D000478BF
:10057000254007D123430370BFF35F8F356087F3B6
:100580001088F8BD100001F0DDFCC0462C0100D041
:100590000021044B044ABFF35F8F02C39342FAD198
:1005A0007047C046000100D0800100D0044A107896
:1005B000431CDBB2172B00D9102313707047C046C1
:1005C000B001002001238340002904D0034A1360B6
:1005D000034A13607047034A1360FBE780E200E0C0
:1005E00000E100E080E100E0024B10309B688000F9
:1005F000C058704700ED00E070B50D00EFF31086B5
:1006000072B60F4A1368002BFCD0BFF35F8F0D4BFF
:1006100010309B6884001B590B4A934203D09D42C3
:1006200001D001F0A7FC074B9B681D51BFF35F8F02
:10063000BFF35F8F0022024B1A6086F3108870BDF3
:10064000240100D000ED00E0CD010010F0B54546DA
:10065000DE4657464E46E0B50D0083B0EFF31089F5
:1006600072B6584A1368002BFCD0BFF35F8F564B0D
:100670009A68030010339F00D459544A904694421C
:1006800034D0AC4245D0524EA21B2F2A2ED8012284
:100690008240924651464F4A12681140019151469C
:1006A0004D4A1160BFF35F8FEFF305829346002A36
:1006B00035D10123220006219A43936851569D4269
:1006C0000AD16AE04B005B1806219B00F31898687A
:1006D0005956A84228D01A000029F3DA019B002BB2
:1006E00019D052463D4B1A603A4B1A60364B9B6804
:1006F000DC51BFF35F8FBFF35F8F0022314B1A6075
:1007000089F3108803B03CBC90469946A246AB469C
:10071000F0BD1400EAE752462F4B1A60E6E7934219
:10072000C7D001F027FCC4E7002921DB4A0050189C
:10073000800035188046A8689860E879D87106204E
:1007400028569871002826DBAD88F01A6D052D1506
:1007500045444019E0250005400D2D0228439880AE
:1007600052181F4B9200B6181A781970B271B5E77B
:100770005946002917D1002A22D0FF319171194919
:10078000918017490A789A71174A9B1B5B415A431B
:10079000120D0A70A2E71548E1E713000029C5DA37
:1007A0005A46002A0CD0124A1249D21A083A50026C
:1007B000400D01439980104952080A43DA808DE7C1
:1007C0004446DEE7240100D000ED00E0CD0100103A
:1007D000B401002000E100E080E100E080E200E000
:1007E0006D04002001BDFFFFAAAA000001BD0000AA
:1007F000EE01002000F0FFFF00F8FFFFF0B5EFF37F
:10080000058101240443EFF3108672B6214A136870
:10081000002BFCD0BFF35F8F1F4B204A0500ED1A61
:100820006D416A43120D1E4D8900AF6852B27F5868
:10083000A7421CD00621595691421CD0122159566C
:10084000914222D01E215956914220D02A21595638
:100850000324914210D0134B19781A708171BFF3A1
:100860005F8F00220B4B1A6086F31088F0BDAB68D7
:100870000D4C5C50EFE700246100091989005B18FA
:10088000FF21997109499980E5E70124F4E70224E1
:10089000F2E7C046240100D0B4010020AAAA00005B
:1008A00000ED00E06D040020CD01001001BDFFFF50
:1008B000054B064A1360064A136053609360D36089
:1008C00013615361936170478080808000E400E091
:1008D00004E400E0024B9C466144890001607047DB
:1008E0004000003410B50400FFF760FE0100200056
:1008F000FFF7F0FFFF232371BFF35F8F10BDC046EA
:1009000010B50400FFF752FE01002000FFF7E2FFE0
:10091000FF23A380BFF35F8F10BDC04670B50600F4
:100920000D00140000291ED0002A1ED073688068B4
:10093000984763006A001B195219033B033A316858
:10094000002808D0CB188A189D70117800290ED184
:100950001470280008E08A18CB18947019780029C0
:1009600000D051701D70200070BD0800FCE7597068
:1009700028001470F8E7C04683680B4810B5844619
:1009800061446244090112019A18591854684B686D
:1009900001209C4201D802D00020C0B210BD1268D4
:1009A0000B689A42F9D8F7E7FFFFFF0F0A4B196867
:1009B000EFF3108072B60A68002AFCD0BFF35F8F95
:1009C0001B68BFF35F8F00221A6080F3108840BF5E
:1009D000002000217047C04654040020F8B5474667
:1009E000CE4680B514001D000BAA0AAB12781B7806
:1009F000804691460768002B12D1BE7B002E44D062
:100A0000720092193968033A891848783300B8732C
:100A1000002800D1F873002088704870087003E047
:100A20001E005A00D218033A1A4938008C46414633
:100A3000896863448C461B0108996344996009994D
:100A40001C605D60D9603B689C46002362449370E3
:100A500053701370797B3200FFF760FF7873B042F8
:100A600013D143462200187D2B0000F0DFFB041E4B
:100A700007D04B46002B04D143463100186800F0E4
:100A80005BFF0C9B002B00D01C7030000CBC904610
:100A90009946F8BDFFFFFF0FF0B5DE4657464E46BC
:100AA00045460023E0B58BB00893674B8200D458CD
:100AB00000239B46099000F057FB6268EFF3108516
:100AC00072B61368002BFCD0BFF35F8F23689C467F
:100AD0005B7B9946002B6CD0A2685C4B90464B44E4
:100AE0001B01984443461E685F6832003B00121A9F
:100AF0008B41002B67DD32003B00099800F096FB2C
:100B000000230022984600230692079300239A466A
:100B10006368BFF35F8F5A461A6085F310885346A7
:100B2000002B08D10028C6D10BB03CBC904699469A
:100B3000A246AB46F0BD089B414618024B461843FF
:100B4000D047626806000F00EFF3108572B6136895
:100B5000002BFCD0BFF35F8F002F51DB33003B43F2
:100B600002D02369002B62D12368DA7B002A07D0E8
:100B700051008A1819688C4649466244033A5170FC
:100B80009A7B002A01D14A469A734A46DA73E26890
:100B90004B469446013B63441A7801321A705B4617
:100BA00023616368BFF35F8F5A461A6085F310882C
:100BB00081E7002300229846002306920793002332
:100BC00000209A46A4E7002B01D1002A93D10021EE
:100BD000604600F0CFFD43461A685B6806920793B3
:100BE00043469B689A464346DB689846E3684B4415
:100BF000013B1B7808931B0203432361002087E716
:100C00002369002BB0D0069A079B921BBB41002B97
:100C100015DB594604910121039149460291414651
:100C20000191514620000091FFF7D8FEB7E700F090
:100C30009BFA32003B0012184B41002BE9DA0122EB
:100C4000034B5242E5E7C04640040020FFFFFF0F80
:100C5000FFFFFF7F10B5144C6368002B04D00A21FE
:100C60001248FFF737FE10BD2300114A10212068FB
:100C700000F09EFB032000F06BFA032000F04AFB1B
:100C80000C49032000F08CFAFFF790FC0A4B9C46BD
:100C900003232375D0231B061B6860446375074B31
:100CA00080006060DC60DAE7FC0100205404002072
:100CB00079090010990A0010400000344004002017
:100CC000F0B557464E46DE464546E0B583B0009245
:100CD00001930C9B06009B460EAB1B7800279946A0
:100CE00000239A467268EFF3108872B61368002BDF
:100CF000FCD0BFF35F8F3568AC7B002C63D0630002
:100D00001B192A68033BD2185178A973002900D116
:100D1000E973977057701770B168374A8C4600981E
:100D20000199A21812016244106051605946916005
:100D30000D992800D1602A68944663449F705F70C3
:100D40001F70697B2200FFF7E9FD6873844245D07C
:100D5000F3681B19013B18787368BFF35F8F1F603E
:100D600088F310885346002B08D10002204303B0BB
:100D70003CBC90469946A246AB46F0BD4B46002B84
:100D80002AD00D990020D84703000B4324D004003B
:100D90000D1E09DA009A019B121BAB4100920193D0
:100DA000002B09DBCA469DE700F0DEF924184D410F
:100DB00000940195002DF5DA0123104C5B4200935D
:100DC0000194CA468EE77368BFF35F8F1C6088F397
:100DD000108801204042CAE70020C8E7307D009A11
:100DE000019B00F023FA82460028B1D02100306830
:100DF00000F0A2FDACE7C046FFFFFF0FFFFFFF7F43
:100E0000F8B542680400EFF3108572B61368002B42
:100E1000FCD0BFF35F8FFF232068CEB2427B0B4034
:100E2000B24208D007685A00BC46D2186244033A5E
:100E30009278002A11D0E268090A94466344013B83
:100E40001B78C9B28B420ED000206368BFF35F8F5E
:100E500000221A6085F31088F8BD23698B42F3D114
:100E600022610020F1E7310000F066FDEDE7C046A9
:100E7000F0B504000D0006267642F717C64636196F
:100E80006F4100B584B08F4214D811D000F06CF9D6
:100E900032003B00121A8B41002B15DC002B3ED098
:100EA0002000290000F06CF904B004BC9046F0BDAD
:100EB0008642EBD90026002700F056F932003B00AD
:100EC000121A8B41002BE9DD002302930193154B8D
:100ED0003200009314483B00FFF7F2FE0028DFDBEE
:100EE00000239846BC46114A114F7B6A9C4504D8A2
:100EF000B96AB142D4D29C45D2D11168EFF31080C7
:100F000072B60B68002BFCD0BFF35F8F1368BFF382
:100F10005F8F4146196080F3108820BFE5E7002A03
:100F2000BED0D1E7AD090010FC0100205404002020
:100F300000400540F0B5C64600B584B004000D0081
:100F400000F012F924184D41002D46DB06267642AA
:100F5000F71736196F41AF4246D90026002700F037
:100F600003F932003B00121A8B41002B0ADC07D038
:100F70002000290000F004F904B004BC9046F0BD44
:100F8000002AF5D00023029301931A4B32000093FC
:100F900019483B00FFF794FE0028E9DB0023BC461C
:100FA00098461649164A4B6A9C4504D8886AB0424E
:100FB000DED29C45DCD11068EFF3108372B607686F
:100FC000002FFCD0BFF35F8F1068BFF35F8F4746E1
:100FD000076083F3108820BFE5E7012407266442F9
:100FE000084D7642074FBAE7AF42B8D1A642B4D80F
:100FF000B5E7C046AD090010FC01002000400540E7
:1010000054040020FFFFFF7F70B5060000F0ACF82D
:10101000FA2204000D00920000233000002103F0AA
:1010200099F900196941002902DBFFF721FF70BD22
:10103000012001494042F8E7FFFFFF7F70B5EFF361
:10104000058384B005000C00002B0ED0104A002050
:10105000536AA34207D3926A0130AA4203D21C1BEF
:10106000601E8441E0B204B070BD0A4E0293019349
:10107000094B0200009330000B00FFF721FE00280F
:10108000E4DD20BF01003000FFF7BAFEDEE7C04616
:1010900000400540FC010020AD090010F8B5EFF359
:1010A0000582CE464746100080B51038EFF3108C0D
:1010B00072B6204C2368002BFCD0BFF35F8F012356
:1010C000190081401C4D1D4E716329601C4DA946BD
:1010D0002D782F00C7403B4015D0736A194E9846B3
:1010E00083009E59B04517D3174A8D439B584A46F3
:1010F0001570BFF35F8F002222608CF31088002BE5
:1011000006D0984704E0BFF35F8F23608CF310880C
:101110000CBC90469946F8BD0C4B92009846424450
:1011200013681360BFF35F8F002323608CF3108874
:10113000EEE7C046280100D03C7005400040054065
:101140006E04002058040020B4030020D03F054066
:1011500010B50100024A0348FFF7F8F910BDC04678
:10116000B05500106C040020044A516A00E01900D8
:10117000906A536A9942FAD17047C04600400540D0
:10118000064A536A9942FCD807D1044B02E05A6AD6
:10119000914202D19A6A8242F9D3704700400540D9
:1011A00070B504000D00EFF3108672B61A4A13688A
:1011B000002BFCD0BFF35F8F002D1BD02000FFF76A
:1011C00013FA164988420AD02000FFF715FA0121C8
:1011D0002000FFF7F7F90123A340114A1360114BD8
:1011E000A400E550BFF35F8F00220B4B1A6086F31B
:1011F000108870BD0B4BA200D5500122A2400A49B5
:1012000020000B7893430B700449FFF71FFA00216D
:101210002000FFF7D7F9E5E7280100D09D10001066
:1012200038600540B40300206E040020F0B5D646B7
:101230004F464646324CC0B5656A00E00D00A66ACE
:10124000616AA942FAD1AB4209D806D00124200034
:101250001CBC90469946A246F0BDB242F6D9EFF3C7
:10126000108972B6274C21680029FCD0BFF35F8F2C
:101270000126254986408C460978244D0F003743C6
:101280008846F9B28A46614654460C701C49041DD2
:10129000A4004E636250840063510D6A00243542FD
:1012A0001AD04D6A00E025008F6A4C6AAC42FAD130
:1012B000AB4219D801D1BA4216D8C2451DD0104B45
:1012C000134A1E625E631F2318401E3B8340136057
:1012D0006346424601241A70BFF35F8F0022094B18
:1012E0001A6089F31088B2E70024BFF35F8F0022F1
:1012F000044B1A6089F31088A9E70124ECE7C04683
:1013000000400540280100D06E0400205804002051
:1013100080E200E010B5EFF3108472B60A490B6862
:10132000002BFCD0BFF35F8F01238340074A08489E
:10133000136202789A430270BFF35F8F00230B6041
:1013400084F3108810BDC046280100D0004005403D
:101350006E04002070B506000D00140000291ED098
:10136000002A1ED073688068984763006A001B19C2
:101370005219033B033A3168002808D0CB188A1869
:101380009D70117800290ED11470280008E08A1889
:10139000CB1894701978002900D051701D7020006E
:1013A00070BD0800FCE7597028001470F8E7C046CB
:1013B000F0B5DE4657464E464546E0B5836000230D
:1013C00089B04260026806914373C9B20133059146
:1013D00001738373C1730492012900D8A4E00A0049
:1013E0004B1ED9B2931E0791072B00D8AEE0002503
:1013F000CB080393049B564C591C564B56489B46AE
:10140000564B9A46564B9C46564B02935246634661
:101410005F465E4662401A40504B2740FB185A40D8
:101420000640534601966646434033404B4E0A7091
:10143000B046019E0135B146C84446467340160485
:10144000360ECE701602120E4A721A04120E0B736A
:10145000CA731A021B0E4B75029B360E5C40634624
:101460001C40404B120E9846029B4744584063462E
:1014700018404B4643445840039BEDB28E718A742A
:101480007C401831AB42C1D1079907230A009A4327
:10149000531CDBB2914247D0049C5A00A446D21898
:1014A000591C6244059DC9B2033A51708D423BD923
:1014B0004A005218981C6244C0B2033A50708542E8
:1014C00032D942001218D91C6244C9B2033A517091
:1014D0008D4229D94A005218181D6244C0B2033AFD
:1014E0005070854220D942001218591D6244C9B279
:1014F000033A51708D4217D94A005218981D624420
:10150000C0B2033A507085420ED942001218D91D5C
:101510006244C9B2033A51708D4205D94A0052184B
:101520006244033A08335370FF23069A134059006C
:10153000C918049B9C460023614403394B7009B0D1
:101540003CBC90469946A246AB46F0BD0123A3E7BA
:10155000010203047F7F7F7F050607080101010167
:10156000808080800808080870B50400002907D032
:101570004B0000685B18033BC3185A78002A01D15E
:10158000080070BD5500AD18033D40190025467890
:1015900045705D702000FFF7DDFE31000500200082
:1015A000FFF7E2FF290002002000FFF7D3FE010051
:1015B000E6E7C046F0B54E464546DE465746E0B53E
:1015C0000E0074000168A41985B0033C01920A1949
:1015D00005001078002850D043001B18033BCB189F
:1015E0005F78BC46002F1AD1019C002C42D0EC7BC6
:1015F000002C04D063001B19CB18033B5E70AB7B3F
:10160000002B00D1AE73EE7300282FD1002353704E
:1016100005B03CBC90469946A246AB46F0BD7A0068
:101620006244033A89184A78934600224A709046E9
:101630005A7001003A002800FFF78CFE5B46814695
:10164000002B07D05B0029685B44033BCB185A781A
:10165000002A16D15A4649462800FFF77BFE296822
:10166000019B0A19002BC2D10028CFD043001B18C0
:10167000033BCB1800219970C8E7019B002BB6D122
:10168000C4E750008018033809184878824640465D
:101690004870587059462800FFF75CFE5346834651
:1016A000002B07D05B0029685344033BCB185A78C2
:1016B000002A06D1594652462800FFF74BFE8346C2
:1016C000C8E7500080180338091840464F78487022
:1016D0005870514628000297FFF73CFE8246002FC3
:1016E00008D0BC467B0029686344033BCB185A787A
:1016F000002A06D15146029A2800FFF72BFE8246A7
:10170000D8E7500080180338091840464F784870D1
:101710005870029928000397FFF71CFE8046002F9F
:1017200008D0BC467B0029686344033BCB185A7839
:10173000002A06D1039A41462800FFF70BFE0290CB
:10174000D8E7032050430338091800204F78487029
:10175000587003992800FFF7FDFD3900029028001A
:10176000FFF702FF029902002800FFF7F3FD039044
:10177000E0E7C046F0B54E464546DE465746E0B582
:10178000467B040075000068AD19033D85B0421921
:1017900001911178002952D04B005B18033BC3180C
:1017A0005F78BC46002F1CD1019D002D44D0E57B05
:1017B000002D04D06B005B19C318033B5E70A37B44
:1017C000002B00D1A673E673002931D1002330002D
:1017D0005370617305B03CBC90469946A246AB4637
:1017E000F0BD7A006244033A8018427893460022A2
:1017F000427090465A7020003A00FFF7ABFD5B46FE
:101800008146002B07D05B0021685B44033BCB186B
:101810005A78002A17D15A4649462000FFF79AFD08
:10182000019B010020684219002BC0D10029CDD0B6
:101830004B005B18033BC31800209870C6E7019B60
:10184000002BB4D1C2E7500080180338091848783B
:10185000824640464870587059462000FFF77AFD8E
:1018600053468346002B07D05B0021685344033B5B
:10187000CB185A78002A06D1594652462000FFF765
:1018800069FD8346C7E750008018033809184046B1
:101890004F7848705870514620000297FFF75AFD64
:1018A0008246002F08D0BC467B0021686344033B7E
:1018B000CB185A78002A06D15146029A2000FFF729
:1018C00049FD8246D8E75000801803380918404681
:1018D0004F7848705870029920000397FFF73AFD3F
:1018E0008046002F08D0BC467B0021686344033B40
:1018F000CB185A78002A06D1039A41462000FFF7F8
:1019000029FD0290D8E7032050430338091800202E
:101910004F784870587003992000FFF71BFD39007D
:1019200002902000FFF720FE029902002000FFF73E
:1019300011FD0390E0E7C04670B5040000292CD0EB
:10194000437B8B422ED00568480040180338281886
:101950008278002A21D053009B18033BEB181A7899
:101960008A4202D11BE0002A08D053009B18033B97
:10197000EB185A788A42F6D142785A700023012235
:10198000837043702000FFF715FE617B020020008A
:10199000FFF7E0FC6073012000E0002070BD42789A
:1019A0001A70EBE701221900FFF704FE60730120B3
:1019B000F4E7C046F8B5040006200D0000F0CCF9AD
:1019C000002845D02B4B2C49E3185A425341802222
:1019D000D20394465B421340284A63441360284A6A
:1019E000136018008A689043FBD1224B8021E318D2
:1019F0005A425341234A5B0049000620995200F0A5
:101A0000ABF92900C00001F07BFEC30921D14027BA
:101A10000122260080256262A36200232C36AD01DC
:101A200035432B60062000F097F93900800001F063
:101A300067FE6023E26A53406E221A4080235B01F6
:101A400033431A60104B236310232B600D3BA364B8
:101A5000F8BD0E4A934203D900230D4F0D4AD8E733
:101A60007F221040013040089F011A003F180300F8
:101A7000CFE7C0460080FCBF00C0004000E000404F
:101A800000F000407004002001030000FEFF000091
:101A9000C0FF3F00FFFF000030B50C2083B000F016
:101AA000B5F9FEF74BFD00280ED0944B944A1A600E
:101AB0005A609A60DA601A615A619A61DA611A6250
:101AC000904A5A6203B030BD8F4CA06700F0A6F96F
:101AD00001228E4B1A60636C012BFCD103228C4BCC
:101AE0001A60894A936B012BFCD101330093894A18
:101AF00004330121884800F035F90523874A009313
:101B00000121874800F02EF9864B5A68FF2A02D837
:101B1000802252005A608022784C7D4B216912014C
:101B2000804D1A60002905D0606901F0E9FD01309F
:101B30000138FDD1E0217B4B02201A681140802240
:101B400052012A4311601968484003210140116085
:101B500004219A681142FCD08022802192012A43FC
:101B600009011160802252005A606F4B23616F4B54
:101B70005968FF2900D85A6003226C48634B012141
:101B80001A60020093681942FCD0E02513681D40DA
:101B900080235B0103431D6012684A40032111400A
:101BA00019600221614A93681942FCD08023802188
:101BB0009B0103430901196080215D4B490051607D
:101BC00063615C4B5A68FF2A00D8596080225A4BE7
:101BD000E1691201574D1A60002905D0606901F0D2
:101BE0008FFD01300138FDD1E02252490B681A40C7
:101BF00080235B012B431A60802380229B012B43AF
:101C000012011A6080223E4B52004A60E3614B4B46
:101C10005968FF2900D85A608022494B216A120175
:101C2000464D1A60002905D0606901F069FD013058
:101C30000138FDD1E02241490B681A4080235B0145
:101C40002B431A60802380229B012B4312011A60D0
:101C500080235B004B602A4B3A4A23623A4B596817
:101C6000914201D801325A608022384B616A1201D8
:101C7000354D1A60002905D0606901F041FD013041
:101C80000138FDD1E02230490B681A4080235B0106
:101C90002B431A60802380229B012B4312011A6080
:101CA0008023DB024B60174B6362294B5A68FF2A83
:101CB00002D8802252005A608022264BA16912016C
:101CC000234D1A60002905D0606901F019FD01302B
:101CD0000138FDD1E0221E490B681A4080235B01C8
:101CE0002B431A60802380229B012B4312011A6030
:101CF00080235B004B600E4BA361E3E6CC03002026
:101D0000006CDC021BB70000008000403CB00040CB
:101D100030B00040002F685900800240008C864798
:101D200000C0024030800040001BB7003C800040F3
:101D3000405973075480004054B000406080004018
:101D400060B00040FFFF03006C8000406CB00040BA
:101D50004880004048B00040014B8000C0587047A8
:101D6000CC030020F8B504000C201E0017000D0065
:101D700001F0C6FC4201121A9101891AC900091822
:101D80008901380001F0BCFC069B226836041B0365
:101D90003343002A21DB194A194EA21851424A4105
:101DA000802149018C4652420A40164962440A6029
:101DB00015490A601700B1688F43FBD1C021221D6D
:101DC0008901114321222560A0600A602268002A4F
:101DD000FCDAE36008230B60F8BD3F2221680A406B
:101DE000AA42D8D1A2681205120D8242D3D1EE21A7
:101DF000E268C9020A409A42CDD1EDE70040FDBF3A
:101E000000C0004000E0004000F000408023024A93
:101E10009B000343D362704700800540AA23064A13
:101E20001B0113602F230549D360054B19605368CC
:101E3000002BFCDA7047C0460040024000B0FA00B8
:101E4000006002402D4B2E4A70B51A602D4A2E4B71
:101E50002E491A6010008B689843FBD12C4C2D4BF7
:101E60009C4209D2013B1D1BAD080135AD002D1967
:101E700008CC9847AC42FBD1FFF70EFE264A224B16
:101E80001A60224A9368DB018033FBD14022234B46
:101E9000234D24489A675A671A67DA66A84205D321
:101EA0000EE0FEF72DFD2000AC4209D204000368CD
:101EB0000834002BF5D1FEF715FD2000AC42F5D318
:101EC000194C1A4DA168C022280002F04BFBA560F6
:101ED000FEF75EFBFEF7ECFCFEF7BCFE144C154B68
:101EE0009C4209D2013B1D1BAD080135AD002D19E7
:101EF00008CC9847A542FBD170BDC04600E0004029
:101F0000BFCDFBFEFE7F3C0000F0004000C0004063
:101F10008002002090020020FFFFFF0100F001403E
:101F2000800200207802002000ED00E00000002088
:101F3000900200209402002000BEFDE710B5FFF7DC
:101F4000FBFFC0460FB400B5084883B002F03CFC6C
:101F5000049B002B07D005A91800019101F05AFB42
:101F6000034802F031FC0120FFF7E6FFE0550010C6
:101F7000F055001010B50148FFF7E4FFD4550010EC
:101F80009A4200D2885470477047C046F8B5574609
:101F90004E464546DE46E0B599460A9B07009A46FE
:101FA0000D9B884693460B9E15009B070FD10C9BFB
:101FB0009E420CD29D1B0E005D44541C4B463100CA
:101FC0002020B8472200A542F7D1B0460B9E002E34
:101FD00028D04446AD195346AA1B013E985D210006
:101FE0004B46B847002EF6D123002C0098460D9B97
:101FF0009B0710D55B46E51A0C9BAB420BD94646B6
:102000002200984601344B46310020200135B84764
:102010002200A845F6D820003CBC90469946A2462E
:10202000AB46F8BD2C00E2E7F0B54F464646D64633
:10203000C0B584B098460EAB1B7894469946129B67
:102040000D9C109F119E9A0724D401221A4092469B
:10205000002E62D1BC420CD21F2C00D9B8E00C9AE1
:10206000551E302201E0202C03D001342A55A7420E
:10207000F9D85246002A0DD0A6420BD9202C5AD0AE
:102080000C9A551E302201E0202C54D001342A55E0
:10209000B442F9D1DA0632D55A0555D4002C4FD1C5
:1020A0000F9A102A00D18CE0022A00D17EE0302263
:1020B0000C9C22704A460124002A25D02D220C9D1A
:1020C0002A55013403930C9B0296009301944346D6
:1020D0006246FFF75BFF04B01CBC90469946A246DF
:1020E000F0BD202CEED00C9A1519013478222A70FC
:1020F000202CE7D030250C9A121915700134202CB1
:10210000E0D04A46002AD9D15A0728D41A07D9D58F
:1021100020220C9D2A550134D4E7002A24D04A46B7
:10212000002A28D10C321A4225D1BC42A4D21F2C3D
:1021300095D9202E1DD92024DA06C3D55A0503D4FB
:10214000A7421AD0B44218D00F9A102A1FD0022AE0
:10215000CED1202CB6D00C9A121901342EE02B22AD
:102160000C9D2A550134ADE7BC4293D21F2C00D8F8
:1021700075E720248EE7013ED7E7621E002A10D0C3
:102180000F9D102D2DD0022D15D01400B2E79A0608
:10219000A7D5202C96D058250C9A12191570013409
:1021A000A6E70F9C102C15D0022CEED162220C9CBD
:1021B000227001249EE70C9DAA46524462251570A8
:1021C00096E79A06E7D478220C9C2270012491E7C6
:1021D00020244EE79A06F6D558220C9C2270012442
:1021E00088E7023C9D06D6D40C9D2D1914007DE78E
:1021F00010B5002800D110BD02F09AFAFBE7C046E6
:10220000F0B5454657464E46DE46E0B59BB0249DA8
:10221000259C82468846099299462A002300280078
:10222000210001F02EFD002800D0CBE00122D94B87
:1022300052422800210001F01FFD002800D0C1E01B
:102240000122D54B52422800210001F007FD002851
:1022500000D0B7E0002200232800210001F0FEFC9E
:10226000002800D0EDE1AB4608948023289ADB00DB
:102270001A40119201D1062326935B460C938023CA
:102280005946289A1B011A40089B10920B4300D014
:10229000AFE0002A00D0BFE104260D930E930C930B
:1022A00000230A93279BB34201D99B1B0A93022761
:1022B000289B1F4005D0734273410A9A5B421A4023
:1022C0000A920C9B002B07D0584608990D9A0E9B3A
:1022D00001F063FC834608910022002328002100BE
:1022E00001F0BCFC002805D0802000068446089937
:1022F00061440891289AA94B414613405A460493D9
:102300000A9B50460393269B0293089B00920193DD
:102310004B46099A00F0A2F9002E63D0289B0200D8
:102320009C061F23E4179C436534431C089320003C
:102330004B464146D0470C9B0024DA179D18DB0F13
:102340009B46731E55400C9302E00500202C11D0D3
:102350000AAA94461F23013463440A2128001E1947
:1023600001F0CEF93031317028000A2101F0C8F9AE
:10237000092DEAD8052306930C9B019405930023AD
:1023800004930A3303935B46029312AB0093089ABB
:102390004B4641465046FFF747FE002F22D0099B8F
:1023A000C41A279BA3421DD9020057461E00551C84
:1023B0004B46414620200134B8472A00A642F6D8B1
:1023C00028000FE0289B2A000493279B4146039393
:1023D000269B504602932300009201934B46099A94
:1023E00000F03CF91BB03CBC90469946A246AB4677
:1023F000F0BD6B4A089B94465800400D604401F0C4
:1024000053FC684A684B01F0E6FB684A684B01F0F0
:10241000BBFB089B674A1B031B0B1A4306000F00FC
:102420000C981100644B002201F0A5FB634A644B39
:1024300001F0D1FB02000B003000390001F0A4FBD9
:1024400001F04AFC0C9001F02FFC5E4A5E4B060046
:102450000F0001F0C0FB00225C4B01F095FB01F086
:102460003BFC5B4A5B4B0D903900300001F0B3FB45
:1024700006000D980F0001F017FC574A574B01F06A
:10248000AAFB02000B003000390001F074FB0200CF
:102490000B000A900B9101F09EFB06000F000A98BA
:1024A0000B9902000B0001F06FFB00220E900F91C0
:1024B0004B4B3000390001F070FB0022494B01F01A
:1024C00063FB02000B003000390001F066FB0022C4
:1024D000454B01F059FB02000B003000390001F0C0
:1024E0005CFB0A9A0B9B0F0080210600C9050020A7
:1024F00001F041FB02000B003000390001F044FB09
:102500003A4F02000B000E980F9901F046FB002293
:10251000284B01F039FBBC460D9A6244160000229C
:10252000330501F058FB07000D900E000E910200DC
:102530000B005846089901F091FB00285ED13B0042
:102540003200C6260C9963318E42B641109976420C
:102550000436002900D1A3E6134361D0089F244A22
:10256000244B5846390001F07FFB002807D0002299
:10257000214B5846390001F071FB002850D1269BB1
:10258000002B00D18CE6119B5A1E9341269AD31A38
:10259000269385E6FFFFEF7FFFFFEFFFFFF7FFFFCB
:1025A00001FCFFFFFB799F501344D33FB3C8608BFE
:1025B000288AC63F0000F03F0000F83F61436F6388
:1025C000A787D23F71A379094F930A400000E03FEB
:1025D0001655B5BBB16B0240EF39FAFE422EE63F0D
:1025E00000002C400000244000001840FF030000C1
:1025F0002D431CEBE2361A3F80842E410C9B0022B7
:10260000013B0C930D98144B0E9901F0C6FA030090
:102610000D900A000E9194E700230D930E930C93F6
:10262000269B19000C9B994213DDCB1A013B269384
:102630008023289ADB001A430023289200260C935B
:102640002EE680231B069C46A4446346AB460893B3
:102650000BE600232693EBE700002440F0B5DE46AE
:1026600057464E464546E0B597B080468946924665
:102670009B46209A219B1000190001F002FB0028C4
:1026800000D01FE2209821990122CC4B524201F048
:10269000E5FA002800D03EE1209821990122C84B9C
:1026A000524201F0E9FA002800D0E7E02098219991
:1026B0000022C44B01F0E0FA002800D0C7E02098C7
:1026C00021990022C04B01F0C9FA002800D0BEE0D9
:1026D000209821990022002301F0C0FA002800D0A0
:1026E000E1E0002380240D93249BE4001C4000D0F3
:1026F000E9E000220626B54B069207930EAB08933D
:102700002098219901F0E8FA07000C9001F0CCFA2A
:1027100002000B002098219901F02DFA069A079BE0
:1027200001F059FA0A900B9101F0FAFA05000990AC
:1027300001F0B6FA02000B000A980B9901F01BFA9F
:102740000022A34B0A900B9101F096FA002800D1C9
:1027500048E12B0001331800099301F0A1FA069A11
:10276000079B01F081FA002804D03B0001330C9351
:1027700000230993002E00D0D5E00C9D280001F025
:1027800093FA02000B002098219901F0F4F900223D
:102790008F4B06000F0001F061FA002808D10022DB
:1027A0008B4B3000390001F067FA002800D17EE140
:1027B000202C00D1FAE00C9F0A21380000F078FFAD
:1027C000089E3031315538000A21651C00F070FF39
:1027D000002800D180E1202D00D1E7E00A2100F09F
:1027E00067FF303171553800642100F061FF023419
:1027F000051E14D0202C00D1D8E008AA9446172337
:102800002800634401340A211E1900F051FF3031C1
:10281000317028000A2100F04BFF051EEAD1032386
:10282000249A1340012B00D1ECE0202C00D1C2E00F
:102830000D9B002B00D111E12D23089A651C135527
:10284000249B01950393239B0293089B20E0249BE8
:1028500052460493239B49460393229B404602938E
:10286000209B219C009301945B46FFF7C9FC17B0A5
:102870003CBC90469946A246AB46F0BD249B5B0704
:102880000ED40322534B2499019203912399029170
:10289000009352465B4649464046FFF777FBE6E722
:1028A0004D4B0422EFE7209A219B0020002101F0EC
:1028B00062F9012380240D93249BE4002090219150
:1028C0001C4000D115E7229B092B00D808E1190014
:1028D00030230EAA4E1E08921370092E00D1F9E083
:1028E000537008AA0C0094468E1E1721093C02233F
:1028F0006144302205E00133CA54013E202B00D14F
:10290000A3E09C42F7D1354BF2009B181A685B6834
:1029100006920793F4E6249B0393239B02930423DC
:1029200001932F4BB4E7202C40D0099D731E0A2140
:102930002800069300F0E4FE089B3031195528006A
:102940000A2100F0DDFE671C0995092D00D892E0F0
:10295000202F2BD0B11E06910A2100F0D1FE089B3A
:102960003031D9550998642100F0CAFE099AA51C96
:102970000700632A00D87FE03419013C14E0631B90
:1029800008AA069394461723013563440A213800A8
:102990005E1900F0B5FE3031317038000A2100F0C8
:1029A000AFFE092F68D90700202DE8D10323249A10
:1029B0001340012B25D0202542E7C046FFFFEFFF43
:1029C000FFFFEF7F65CDCD4165CDCDC180842E4128
:1029D0000000E03FD4570010D8570010F057001007
:1029E000E457001000220A980B99494B01F036F980
:1029F000002800D0BEE62B1E60D1099B013309934D
:102A0000B8E62024239B002B00D10EE70D9B002B62
:102A100003D1249A0C33134202D0239B013B23930E
:102A2000239BA34200D800E708AA9446172330222C
:102A30006344202CBFD0239901341A558C4200D115
:102A4000F3E6202CF7D12025FAE6324BF2009B1852
:102A50005C681B6806930794202451E6249B5B075F
:102A600020D4249B25001B0700D4E9E62023089AE4
:102A700001351355E4E63D00202D97D008A98C467A
:102A800017230698634442193021002826D00135C7
:102A90005955202D30D0AA42F9D12E230899541C23
:102AA0008B5485E62B23089A651C1355C8E6012331
:102AB000AC462B409C4463460C9379E6DB0700D47C
:102AC00058E69AE7249B0393239B029303230193E5
:102AD000114BDDE6012416E72C00A0E62A00DCE716
:102AE000DA001E000B4B9B185C681B68069307946A
:102AF0000EAB0024089303E60323249A1340012B12
:102B000000D09DE6239B002B00D199E620247DE791
:102B10000000E03FF0570010E0570010F0B54546C8
:102B2000DE4657464E46E0B5A1B01D002A9B9046B2
:102B30000B93BD4ABD4B0A908B461A60002900D109
:102B40000DE2002328789A46002861D0B84B5646FB
:102B50009946C24609E0741C320053460A9E594603
:102B6000B04726002878002850D001352528F2D11A
:102B7000042328789846023B9C460300203B691CAE
:102B8000DBB200240A00102B0ED84F469B00FB58E6
:102B90009F4601230D001C432878691C0300203B3D
:102BA000DBB20A00102BF0D90300303B092B41D9CE
:102BB00000272A286AD000230C932E2851D0030026
:102BC000683BDBB2122B5FD89A499B00CB589F46DB
:102BD00063460D001C43DFE743460D001C43DBE763
:102BE00010230D001C43D7E708230D001C43D3E737
:102BF00080235B0068781C43551C0300253BDBB237
:102C0000532BA8D88C4A9B00D3589F46D046B24637
:102C10005246D04501D843465A1E434659460020E5
:102C20000A9CA047504621B03CBC90469946A2461B
:102C3000AB46F0BD0027030001E00D000131B800F4
:102C4000C0194000C0180B7830381A00303A07001D
:102C5000092AF2D918000023AA1C0C930D002E2873
:102C6000ADD180236878DB001C430300303B092B87
:102C700000D877E12A2800D1ABE10300683BDBB242
:102C800015000132122B9FD91500B6E70B9B80CBA4
:102C9000002F00DA5BE16878AA1C0B930D008AE72D
:102CA00068786C2800D14DE280235B001C43551CE2
:102CB000A3E780239B0068781C43551C9DE7687838
:102CC000682800D139E28023551C1C4395E70B9BF3
:102CD00004CB98460C9B0B921078002B00D0A2E1FD
:102CE000002801D100F071FC02235B425A1C0B9BAF
:102CF000944619000D92614401E08B4206D00133E5
:102D00001A78002AF9D10B9A9B1A0D938023DB00C5
:102D100023400E9305D00D9B19000C9B994200D9BE
:102D20000D93022323400F9300D140E2002800D1ED
:102D300026E20E9B002B00D1E6E141460C9B0C9154
:102D400029009C190B9B5D469B1B3200B8460B93D8
:102D50008B460AE0534629000A9F561CB8470B9B36
:102D6000985D002800D104E232009442F2D10C9B1D
:102D7000474698465B462600AB461D000F9B002B3E
:102D800000D0FDE143460B93ECE60B9B04CB0B9389
:102D9000002A00D128E121231C43A44610A988461B
:102DA0001F240F2144440023884603E0202B00D138
:102DB00024E10A0041461140CFB2380037300929DA
:102DC00000D807380133E05411090F2AEED815E175
:102DD0000B9B04330C93731C0D939846A30700D4EC
:102DE00006E20B9B32001878594653460A9CA047CE
:102DF000BE19012F00D8A7E22B0042465546B04627
:102E00009A465E460A9F541C2B0031002020B8478A
:102E100022004445F7D15346B346AA4626001D007A
:102E20000C9B0B939EE6C0461D2B00103C0400201B
:102E3000F45500103856001084560010782800D140
:102E400052E2582800D183E16F2800D1F3E06228D4
:102E500000D156E3102322009A438023DB000D9219
:102E60002340692800D0BCE30A220E92002B00D137
:102E700046E201230D9A9A430D9280240D9BA400F3
:102E800023409C46692800D1E7E0642800D1E4E0B3
:102E90006346002B00D094E280230D9A5B001A4019
:102EA0000B9B904604330F93002A00D02CE30D9B1C
:102EB0005B0600D544E20D9B1B0600D488E30B9B08
:102EC0001B881800031E00D04DE20D9A103311002C
:102ED00099430D91520500D445E2002398460D9B7D
:102EE000059706930C9B04930E9B03930023029378
:102EF0004346019318AB00933200534659460A9853
:102F0000FFF792F80F9B06000B932BE6462800D1A3
:102F10008EE007220B9B04940733934319000C9A0D
:102F2000039702920CC90A98009201930B91320008
:102F300053465946FFF792FB060013E6741C320015
:102F400053460A9E59462520B04726000AE602222B
:102F5000687814437F42AA1C0B930D002BE6D34BD9
:102F60000A93EEE50023010000E02A009800C01853
:102F7000400040185178030008003038551C303BA1
:102F80000928F2D90C930800023218E62023020027
:102F90009A43472A04D180231B011C4302239843F0
:102FA000452801D120231C4307220B9B049407339F
:102FB000934319000C9A039702920CC90A98009245
:102FC00001930B91320053465946FFF719F9060059
:102FD000C8E50B9BA87802CBCA43D21711400C91CD
:102FE000EA1C0B930235EAE51023210099431133C3
:102FF00019438C460023610500D4CFE66246069251
:10300000082205920C9A0492102203920022029246
:10301000019318AB00933200534659460A98FFF7C4
:1030200003F806009EE5002800D1CDE2013B5DE6F5
:1030300020231C436DE708230E9322000D94802368
:10304000DB001340642800D0CEE2002B00D010E754
:1030500080241300A40023409C466346002B00D02C
:10306000E5E080230D9A5B001A400B9B90460433E9
:103070000F93002A00D0C6E10D9B5B0600D547E107
:103080000D9B1B0600D499E20B9B00229B5ED91777
:103090005A184A401000DA0F1492002B09D18023ED
:1030A00010220D99DB000B4091430D91002B00D0B5
:1030B00050E10D9A6123920600D5412310AA1F24E6
:1030C0009446DBB264440A3B159716960B9346462A
:1030D0000700A84625000E9C0AE03033DBB201361B
:1030E000AB55A74200D231E1202E00D12EE10700DE
:1030F0002100380000F004FBCBB20929EDD90B9A6E
:1031000094466344DBB2EAE70B9B32009E1B33001C
:103110005E46AB4655469A460B970A9F2B003100F8
:10312000541CB8475346185D22000028F6D1AA4621
:103130000B9F5D46B346260020E6C023A8781C43BB
:1031400003355AE5C0239B00A8781C43033554E59A
:103150000C2322009A4314331A430D92630500D5C1
:10316000D3E080239B001C40F13BFF3BA4460E9321
:103170008EE60C9B474698465B46AB461D00FDE538
:103180000D9B32009F4200D8FCE5BE19F61A2B00B9
:103190005D469B460A9F541C534629002020B84791
:1031A0002200B442F7D15B46AB461D00EAE50D9A1A
:1031B000531C974200D812E2BB199B1A0D971F00AF
:1031C00032005E46AB460A9D541C53463100202017
:1031D000A8472200BC42F7D15D46B34626000D9FAA
:1031E0007B1C0D930B9B1878002800D0A1E5C9E546
:1031F000012F00D8F0E1731E3200A846DF190A9EA5
:103200005D460D9C00E00134534629002020B04764
:103210002200BC42F7D12600AB46454601360B9B47
:103220003A001878594653460A9CA047F8E5072209
:103230000B9B07339343013294469C4462460B92A6
:103240001A685B689C46DB171293139312981399C4
:1032500003005340109364460B0063401193109B8E
:10326000119C1B1A8C41109311946346DB0F14932D
:1032700063461A4350D00D9A6123920600D541232C
:103280000022DBB2904610AA0A3B1F2494460F93FB
:103290005B4664441793230015971696AB46109E21
:1032A000119F44460E9D984610E0C046891F0010AD
:1032B0003032D2B2434601341A550023BB4200D10A
:1032C00067E1202C00D167E106000F002A000023EF
:1032D0003000390000F052FAD2B2092AE8D90F9B27
:1032E0009C466244D2B2E5E780231022DB002340F3
:1032F0000E920C2294430D94002B00D1BDE5B8E54D
:1033000080239B001C40A446A7E610230E93B0E543
:103310000B9B1B781A00BDE60D9A102311009943F0
:103320000D915205A7D5002398460D9B059706934E
:103330000C9B04930E9B0393149B0293434667E6F6
:103340000B9B1B781800BDE50D9E69E54546159F52
:10335000B046169E0D9B059706930C9B04930E9BFF
:103360000393149BC3E50D9A6123920600D5412374
:1033700010AA1F249446DBB264440A3B14971596A6
:103380000B9346460700A84625000E9C08E0303304
:10339000DBB20136AB55A7420ED3202E0CD007006E
:1033A0002100380000F0ACF9CBB20929EFD90B9A13
:1033B00094466344DBB2ECE74546149FB046159E45
:1033C0008DE507220B9B07339343013294469C44BF
:1033D00062460B921A6859681300100009910B435A
:1033E0005CD10D9A1033110099430D91520555D5BA
:1033F000002398460D9B059706930C9B04930E9B08
:103400000393002399E70B9B1B68D9175A184A406E
:103410001000DA0F1692002B08D1802310220D998C
:10342000DB000B4091430D91002B2CD10D9A6123B1
:10343000920600D5412310AA90461F24DBB24444D3
:103440000A3B14971596A8460B932500070066467D
:103450000E9C08E03033DBB20136AB55A7420ED3E9
:10346000202E0CD007002100380000F049F9CBB223
:103470000929EFD90B9A94466344DBB2ECE7454641
:10348000B446149F159E0D9B059706930C9B0493C1
:103490000E9B0393169B029363462AE50D9A6123C4
:1034A000920600D541230022DBB2904610AA0A3BC7
:1034B0001F2494460F935B46644414971596AB46BD
:1034C00046461693A0460E9D099F04000BE030323D
:1034D000D2B2434601369A550023BB4265D0202E16
:1034E00065D004000F002A0000232000390000F0FE
:1034F00045F9D2B2092AEAD90F9B9C466244D2B25E
:10350000E7E702230E9398E50B9B1B68181E08D172
:10351000802310220D99DB000B4091430D91002B6D
:103520002CD10D9A6123920600D5412310AA904612
:103530001F24DBB244440A3B14971596A8460B930C
:103540002500070066460E9C08E03033DBB20136EA
:10355000AB55A7420ED3202E0CD007002100380017
:1035600000F0CEF8CBB20929EFD90B9A9446634408
:10357000DBB2ECE74546B446149F159E0D9B0597BC
:1035800006930C9B04930E9B0393002302936346C4
:10359000AFE4B54200D894E6179B109611975D46AC
:1035A000159F169EA0469B46BFE6A54297D9169B3F
:1035B000B0465D46149F159E9B461BE70B9B1B6800
:1035C000D9175A184A4065E500230D93FFF79EFB73
:1035D0000B9B1B68180075E437000D9E1FE60D93CA
:1035E00002E60A230E932AE5140082E60EB40122B5
:1035F00010B585B007AC08CC0100009452420448D5
:103600000394FFF78BFA05B010BC08BC03B0184751
:10361000811F001010B5094A84B01468002C09D02D
:10362000012200910300524203A90548A04701204E
:1036300004B010BD01F0C8F80020F9E73C040020F8
:10364000F121001001480421014B184730020020ED
:1036500075360010142310B50100188804331B8838
:10366000984710BD162310B50100188802331B8837
:10367000984710BDF0B5C64600B5002916D01423F2
:1036800004000125984618278900461843462168FA
:1036900018883B88984701C4431E98414042054022
:1036A000A642F3D1280004BC9046F0BD0125F9E7FD
:1036B000124A936F9B0815D29066D166002905D0F7
:1036C000FFE7FFE7FFE7516F106F704704B58021F8
:1036D0000906C2175140002800D0C84301F040FF3E
:1036E000002104BDF0B5146E556E576F166FFFF7CD
:1036F000E3FF1466556657671667F0BD000000D0FB
:10370000114A936F9B0813D210665166002905D0A9
:10371000FFE7FFE7FFE7516F106F704704B5002820
:1037200001D00020C04301F01BFF002104BDC046B2
:10373000F0B5146E556E576F166FFFF7E5FF146600
:10374000556657671667F0BD000000D094464A4A98
:10375000926F9208624601D228E0C046F0B5464E0C
:10376000346E756E776F366F00F020F89446424ADB
:1037700014665566576716676246F0BD94463E4A22
:10378000926F9208624601D254E0C046F0B53A4EBC
:10379000346E756E776F366F00F04CF89446364A8B
:1037A00014665566576716676246F0BD002B24DB2A
:1037B00011D000293EDA00B5C943404200D10131A1
:1037C00000F038F8C943404200D10131DB43524296
:1037D00000D1013300BD002AEBD1002801D100291E
:1037E00005D00020C90FC90701D1C043410800B569
:1037F00001F0AEFE0022002300BD00B500290ADB67
:10380000DB43524200D1013300F014F8C943404277
:1038100000D1013100BDC943404200D10131DB4339
:10382000524200D1013300F005F8DB43524200D18F
:10383000013300BD002923D1002B18D1002A0CD060
:10384000BC460D4F38667A6600210023FFE7FFE78C
:10385000FFE77A6F386F67467047002801D0074846
:10386000010000B501F074FE0022002300BD02003B
:103870000B00002000217047000000D0FFFFFFFF79
:10388000002B00D0BFE0130C28D1002AE7D080B471
:10389000114F39667A66FFE7FFE730B4040C7B6F9F
:1038A000396F1B0423433B667A66FFE7FFE7FFE7B8
:1038B000C04684B27B6F3D6F1B0423433B667A6630
:1038C000FFE7FFE7C04600232C042D0C7A6F386F0A
:1038D00000196941B0BC7047000000D0F0B59446B3
:1038E0000025140E01D112020835140F01D1120166
:1038F0000435940F01D192000235D40F01D152004A
:103900000135D40B0134254F7C66254C3C660E0CEA
:1039100093B2FFE7FFE7FFE73C6F6643360C7703A0
:10392000BE467343DF0B5B04C01AB941130C7343EB
:10393000DB18C91ACE086643360CB64493B27343FB
:103940001F0F1B01C01AB941130C73431F0B1B053A
:10395000C01AB941860D8F023E436643360C092DCD
:1039600024DB520A7243801A7703460A6643360CF8
:1039700016235B1BDE40DF40BF1964466643821B93
:103980007046043506330100D940A840C01900D361
:103990000131A24206D20023F0BD0000000000D099
:1039A000FFFFFFFF121B0130F3D3F1E709277F1B55
:1039B000FE406446A2B27243801A00D20139220C42
:1039C0007243130C1204821A99410B00704604359D
:1039D00013370100F940A840801900D30131002BB2
:1039E00002D1A2420AD2F0BD013000D30131121B34
:1039F000FAD2013BF8D1A24200D2F0BD013000D38F
:103A00000131121BF7E7F0B51C0C00D080E00CB4BC
:103A100000251C0A04D11B02160E3343120208357E
:103A20001C0B04D11B01160F3343120104359C0BF0
:103A300004D19B00960F334392000235DC0B02D178
:103A400092185B4101351C00971864410134464FC0
:103A50007C66464C3C660E0CFFE7FFE7FFE7C0467E
:103A60003C6F6643360C7703BE4697B27743C01B64
:103A700000D20139C01B00D201399FB27743C91B64
:103A8000C91B170C77437E04FF0B801BB941CE087E
:103A90006643360C0C2D33DBB644120B1F053A433C
:103AA0001B0B97B27743C01B00D201399FB27743FB
:103AB000C91B170C77433E043F0C801BB941860D90
:103AC0008F023E43664329277F1BFE400C3D77460D
:103AD000AF40BF1930BCA2B2ABB272437343801A7D
:103AE0009941220C7243130C1204801A994102006E
:103AF0000B000137001BA941F9D2781E0021F0BD4F
:103B00000C277F1BFE4077467F0BAF40FF19E0E795
:103B100000245D1C07D0144F7D663966FFE7FFE780
:103B2000FFE7FFE73C6F95B29EB265436643401BDB
:103B3000B141150C1E0C6543664336042F0C3E4301
:103B40002D04401BB141994204D202000B00200019
:103B50000021F0BD01D19042F7D3801A9941013480
:103B60009942F2D3F6E70000000000D0FFFFFFFF0C
:103B700048404140484018B41B4B5B68FC460193E9
:103B800008BD04DF273E001018B4174B1B68FC4625
:103B9000019308BD00DF313E00109446134A926F36
:103BA000920809D2624618B40F4BDB68FC460193B9
:103BB00008BD0CDFE94000100C4AF0B5146E556EDC
:103BC000576F166F6246FFF7EEFF084A1466556698
:103BD00057671667F0BD18B4034B9B68FC4601930A
:103BE00008BD08DF8D3F001074040020000000D0E5
:103BF000FFB550404240504059404B40594000E0D2
:103C0000FFB5154F4C00640D03D0BC4204D10C032A
:103C100014D80020090D09055C00640D03D0BC42D6
:103C200004D11C030AD800221B0D1B0501264B40A2
:103C300009D44B4003D58B4200D18242FFBD99424B
:103C4000FCD19042FFBD0B43DB1803431343F5D077
:103C5000C9434918FFBD0000FF07000000B5FFF78A
:103C6000CFFF804100BDC04600B5FFF7C1FF01D9BD
:103C7000002000BD012000BD00B5FFF7B9FF804165
:103C800000BD012040054A00121804D85A0012183D
:103C900001D80020704701207047002070470000C5
:103CA0000021002805D17047C1174840401AFAD0BA
:103CB000C90713B5064B1B6898470CBC441CA240AF
:103CC0001005120B0349091B09051943114310BDC7
:103CD000500400201F04000010B54C00620D80232A
:103CE000D218DB00D21A5B057E2A10DD9E3A13DA69
:103CF000CC170903490819435242D14064000134EA
:103D00001532202A05DAD0400843604310BD002058
:103D100010BD0846604310BDC80FC018013810BD63
:103D200018B4044B5B6AFC46019308BD24DF99423A
:103D30000010000074040020132370B51D78012DBD
:103D400015D010DD2648FFF78DFC264C010080229F
:103D5000200000F007FC022D06D02348FFF77AFC74
:103D6000224B186070BD1F4C214AA264F5E71D4C20
:103D70001F4AA3085B421D402FD02B002260202049
:103D8000A9006118451B0A604A608A60CA600A611E
:103D90004A618A61CA610A624A628A62CA620A63C5
:103DA0004A638A63CA630A644A648A64CA640A65A5
:103DB0004A658A65CA650A664A668A66CA660A6785
:103DC0004A676D08102D03D18A67CA67A264C4E7E9
:103DD0001E339B00E250A264BFE70023CFE7C0463A
:103DE00053440000740400204C33000050040020B1
:103DF000F53D001007B5604601880A0A0230DF2A47
:103E0000FAD1C9B2820804D3028840880004104362
:103E100000E00068014A5050039007BD7404002080
:103E20000FB403BC0CBCF0B50124E407634000E010
:103E3000F0B50C0DCF0F661E3605891B640503D344
:103E4000C943404200D30131640D03D0661CF60A19
:103E500007D0E41B00207F00791C89078912803C71
:103E600024031D0DDF0F6E1E36059B1B6D0503D34E
:103E7000DB43524200D301336D0D03D06E1CF60AB2
:103E800007D0ED1B00227F007B1C9B079B12803D0F
:103E90002D032F1B661B58D4A446202E46DA20374C
:103EA0001400BC401D00BD40F24033412A4380183D
:103EB0005941CB0F05D0C943C04300226442504151
:103EC000514162464D0D28D10D0D07D100281FD05C
:103ED000241940414941013A0D0DF9D0640006D33F
:103EE000013000D30131002C01D140084000013ADB
:103EF0000BD4941CE40A04D112051144DB071944C5
:103F0000F0BDD907204B194300E0D9070020F0BDD0
:103F10000029DDD1002CDBD1F0BD0132C6074008FD
:103F2000CD0728434908002EE1D0D9E73C2E29DAF5
:103F3000203E40371400BC4000D00124F24014431E
:103F40001A00BB401C43D317ACE7AC46202F08DA5D
:103F500020360400B4400D00B540F84039412843F4
:103F6000A5E73C2F0CDA203F40360400B44000D0D7
:103F70000124F84004430800B1400C43C117EAE7AC
:103F800010001900002494E70000F07FF0B50C0D3C
:103F9000661E3605891BE60A6405640D02D0651CA1
:103FA000ED0A04D0002001210905803C2403A44629
:103FB0001C0D671E3F05DB1BE70A6405640D02D07C
:103FC000651CED0A04D0002201231B05803C24035C
:103FD0007740644497B484B296B27443070C7E432E
:103FE000150C6F4380B26843361802D301200004D9
:103FF0003F183004350C00197D41844688B29AB2CE
:1040000050430C0C62431F0C7C438EB27E439219CA
:1040100002D301263604A4191604170C361867417A
:1040200001BC81B29AB25143040C62431B0C5C4345
:1040300080B25843121802D301200004241810043F
:10404000130C401863412D185E410020474106BC07
:1040500088B293B258430C0C6343120C544389B298
:1040600051435B1802D301210904641819041A0C86
:10407000091862416D1856410020474118BCF902E9
:10408000720D1143F0026A0D1043ED020A0D03D1C7
:104090006D1940414941013B124E9B1B7600B342D2
:1040A0000ED26D0007D301300026714166463543BC
:1040B00001D1400840001B05C918E4072144F0BDA8
:1040C0000BDA013306D1013004D101314F0D01D09B
:1040D0004908F2E7E1070020F0BD01363105002074
:1040E000EBE70000FF030000F0B51C0D671E3F0565
:1040F000DB1BE70A6405640D02D0661CF60A04D0D7
:10410000002201231B05803C2403D0252D06002618
:10411000F6432E661E096E66CE0FF619B4464900A8
:104120004F0D02D07E1CF60A03D000200021403F34
:104130003F033E1BB600B444013F7F05C91B49083D
:104140002E6F013676089C02950D25437543ED13BD
:104150007543AD1301356D10F603761B0CB4CC021C
:10416000450D2C43A2B2B3B25A43270C7B43350C06
:104170006F43A4B26C431B1902D3012424043F19DA
:104180001C041D0CA4187D4124196D41009A91B2A4
:10419000ACB26143170C7C432B0C5F4392B25A4381
:1041A000A41802D301221204BF182204230C5218AF
:1041B0007B41019C6C431B19520ED9010A434401F7
:1041C000A01A81B2B2B2514303145A43360C73435E
:1041D00087B27743D617D21900277E4136049B1940
:1041E0001704160C7F185E417316ED18F3010026B4
:1041F00080337541A90F06D16400690AE8055B0A9E
:10420000184309D22FE00422944480337541A90A4F
:10421000A8059B0A184326D3404149412404009A2B
:10422000019B0D005543641B4343E41A95B286B2CB
:104230007543170C7E43030C5F4392B25A43B61882
:1042400002D301221204BF183204330C52197B41ED
:1042500052429C41002C02D40022013051414008BE
:10426000CA071043490802B06246D7079210084BAC
:10427000D218084B9A4203D212058918C919F0BD09
:104280000020002A01DC3900F0BD01331905F5E7F3
:10429000FD030000FE070000002200B5203200F000
:1042A00004F8080000BD000000220B150AD410B568
:1042B000944600F031F81414013400DA0021CB17D1
:1042C000144C20470020002170476244343A0CD43B
:1042D0000C2A07DA04009140904052422032D44028
:1042E000214310BDD843D94310BD203207D40C461A
:1042F0009440524220321141D040204310BD08006A
:10430000C917203203D452422032104110BD180088
:10431000190010BDCB4200100A0DCC0F531E1B0517
:10432000C91A520503D3C943404200D30131520D8B
:1043300003D0531CDB0A07D0121B00206400611C51
:1043400089078912803A1203014BD21A7047000084
:10435000FF03000051434343C9188C46110C83B23C
:104360004B4310B4040C614392B280B25043624399
:104370001C041B0C001910BC59411304120CC0186A
:1043800051416144704700004840414048400E4B55
:104390005B6818470C4B1B6818470C4A936F9B08C7
:1043A00002D2094BDB681847F0B5146E556E576F93
:1043B000166FFFF7F6FF054A1466556657671667CE
:1043C000F0BD014B9B68184774050020000000D029
:1043D00007B548404140484001E0C04607B54200AB
:1043E000120E03D0FF2A03D1420218D8C00DC00517
:1043F0004A00120E03D0FF2A03D14A020FD8C90D7A
:10440000C9050122414005D4414001D5814207BD83
:10441000884207BD0143491801D0C043001807BDB9
:1044200000B5FFF7D5FF804100BD0000C10FC907EF
:1044300000D54042002817D0F44603B40B4B1B684C
:10444000984706BC81409E384042803107D20B0617
:1044500007D04900490AC0051043084360470130AE
:10446000F8E7490A8902F5E7704700005004002088
:10447000034BDB6FFC4618477CDF1945001000003A
:1044800074050020132310B51C781348FFF7EAF8D1
:10449000012C0BD004DD01008022104800F062F8EE
:1044A0000F48FFF7D7F80F4B186010BD0B4C0100F9
:1044B0005422200000F056F80B4B6365A365E365BA
:1044C00023666366A366E36623676367A367E367A0
:1044D0002362E361E4E7C046534600007405002010
:1044E0004C33000050040020ED44001007B5604636
:1044F00001880A0A0230DF2AFAD1C9B2820804D33D
:10450000028840880004104300E00068014A5050CF
:10451000039007BD74050020C30FDB0741000A0E9E
:1045200007D0FF2A08D00909054A8918194340070E
:1045300070471900002070470249C918FAE70000C7
:10454000000000380000F07F01480421014B1847AB
:104550004002002075360010014B1B681847000010
:1045600040020020014B5B68184700004002002019
:10457000030010B508001B681100984710BDC04625
:10458000F8B54746CE4680B5437D80460C00150001
:10459000002B43D0002A34DD0A78037D00200A2A4C
:1045A00033D0012D1ED0204B0121671E994602E019
:1045B0003100B54216D0635C7A5C4E1C0A2BF7D1F1
:1045C0000D2AF5D043461B68884204DA091A2018E0
:1045D000984743461B6802214846984730003100FF
:1045E000B542E8D1854204DD4346291A1B682018EC
:1045F00098476419013C23780D3B5A425341424687
:1046000013750CBC90469946F8BD002BC9D14346A2
:10461000054802211B6898470120C2E70368110082
:1046200020009847EDE7C046B4580010F0B5DE46CC
:1046300057464E464546E0B585B017001C000600BB
:104640000D00FCF791FD0023324A12184B41002B5C
:104650005BDB31490800884600F08AFF01906B1C43
:1046600003D1300000F036FF0500002C28D12B4B81
:104670009A462B4B1C68002C15D0002F23D1294FB4
:1046800002E02469002C0ED02368002BF9D03B688F
:10469000002B01D0A342F4D120002A003100D047E2
:1046A0002469002CF0D1019B002B2AD1681E854182
:1046B000E8B205B03CBC90469946A246AB46F0BD78
:1046C000194B9A46D5E7174B9B4602ABDF1D0A23D1
:1046D000994602E02469002CE5D02368002BF9D02C
:1046E0005B461B68002B01D0A342F3D12A003100A6
:1046F0002000D0474B460122390020003B70D047B4
:10470000E8E7404600F01CFFD0E70122074B524289
:104710009FE7C04640420F0078020020814500100C
:10472000340400203804002071450010FFFFFF7F93
:10473000F0B5CE46474680B583B06B46DE1D05001A
:104740003070FCF711FD00231A4A12184B41002B60
:104750002CDB194F380000F00BFF184B80461C680B
:10476000002C16D0164B994602E02469002C10D07C
:104770002368002BF9D04B461B68002B01D0A342C5
:10478000F3D1200001223100FFF7FAFE2469002C4A
:10479000EED14346002B05D1280003B00CBC904657
:1047A0009946F0BD380000F0CBFEF5E70122054B3D
:1047B0005242CEE740420F0078020020340400202D
:1047C00038040020FFFFFF7F70B5040000F082FE78
:1047D00000230100050001222000FFF727FF084BFE
:1047E0001C68002C06D06368002B05D0984724690C
:1047F000002CF8D1280070BD2469002CF3D1F9E712
:10480000340400200A4A1368002B05D10CE01A007A
:104810001B691032002B07D09842F8D1002902D131
:1048200003691360016170470029FCD01060FAE74A
:104830003404002010B500F0BDF8012010BDC046C2
:10484000F0B5002915DD0E4B0D271A680D4B4118E8
:10485000D3185C4263410C4C5B001E5F202405783A
:10486000AE4207D093691C42FCD1013015608842EA
:10487000F5D1F0BD93691C42FCD11760F2E7C04648
:10488000680400200080FCBF7004002030B50029BF
:1048900023DD1B4B1A689369DB061ED40025102408
:1048A0000138013593691C42FCD113684355A94274
:1048B00002D093691C42F4D0124B1B68002B0AD023
:1048C00050239363516B183B34320B40110080220C
:1048D00052010A431360280030BD0A4B1B68002BAD
:1048E0000BD050223821064B1B689A635A6B343325
:1048F0001140802252011343196003256D42EAE7FB
:1049000068040020C4030020064B10B51B68002B70
:1049100006D00021044A12689163044A106898473F
:1049200010BDC046C403002068040020C803002056
:10493000F0B51B4F1B4A3B68050098184242504196
:10494000C646194E143000B5884604003268002D62
:1049500008D0002A11D04246144B35601A6004BCBE
:104960009046F0BD002AF6D09D630021FBF72AFE99
:104970000F492000FBF76AFEEDE70D49FBF73CFE0F
:1049800001212000FBF71EFE502238213B689A636C
:104990005A6B343311408022520113431960DAE715
:1049A000680400200080FCBFC4030020C80300206E
:1049B0000949001010B50C4B0C4C1B780C4B022114
:1049C0001B780C4B00202360FBF756FD02210120D1
:1049D000FBF752FDE12120684902FCF7EBFF0121C2
:1049E0000548FFF70FFF10BD18590010680400209C
:1049F0001C59001000400340500200203A4AF0B514
:104A0000821A53425A410723D6464F46464604006F
:104A100052429A43354B1032C0B51A60344B0D00E8
:104A200034491A6010008B689843031EFAD166213E
:104A30002268FF312071D066116063398833FF39F5
:104A4000D0639063D1500520FDF786F90600680811
:104A500029008019FEF754FE430098468044070061
:104A600005214046FEF74CFE3B1A9A46224B8146F2
:104A7000700080199D4232D82049FEF741FE451C46
:104A8000002324680120E366226804335340062291
:104A90001A4080235B0123431A605346E3614B466F
:104AA000236243464F2B03D950214046FEF728FE90
:104AB000A0232200E0508023E06F7C326840000495
:104AC0005B011343000C1860012339003000E366DA
:104AD000FEF716FE1CBC90469946A246F0BD08495A
:104AE000FEF70EFE451CCBE76802002000E0004008
:104AF00000F0004000C000403F420F008096980048
:104B000040787D01F0B54546DE4657464E46E0B555
:104B10000025046883B0E5666160012190460CAA17
:104B20001278E166002B55DD591E8C4610350127A1
:104B3000AA4670350021A946664657407F02009379
:104B40000025002903D105796B1E9D41AD0200238C
:104B50009C46B14237D043465B5C1D4363461D43D0
:104B6000009B25619C465346656B2B42FBD06346F8
:104B700000934B46E3589C46002B0ED1B14224D003
:104B8000009B01318B42DBD10271080003B03CBCB9
:104B900090469946A246AB46F0BD656D012501924F
:104BA0008022636B92001342FAD0019A236E002D8B
:104BB000E6D06546002D03D0EB0701D42B07E3D4E4
:104BC00002214942E0E7BC46C5E7002AD8D10025CA
:104BD0000192E5E70021D7E701230121084A13608C
:104BE000084A1360084A080093689843FBD1074AB3
:104BF00011608021490013680B42FCD07047C04609
:104C000000E0004000F0004000C0004000C0044050
:104C1000F0B54EB20F253700AF433D0004000079D8
:104C20000F018306DB0FDB0013435BB21D433B43E5
:104C30005BB285B0EDB2DFB2002A0ED1002E0CDBE4
:104C400060320A4253D1CA065BD54706FF0FC0093E
:104C5000FF01800107431F43FFB20A980B99FCF73D
:104C600069F90F2604236E442B433370E378012B3C
:104C700045D0314800232178009332000133FFF7FB
:104C800041FF0A980B99FCF755F904239D433570B1
:104C9000E378012B31D0284800232178009332009B
:104CA0000133FFF72FFF0A980B99FCF743F9042310
:104CB0003B433370E378012B1DD01F48002321783C
:104CC000009332000133FFF71DFF0A980B99FCF7A0
:104CD00031F904239F433770E378012B09D016483C
:104CE00000232178009332000133FFF70BFF05B05A
:104CF000F0BD1248F4E71148E0E71048CCE70F4850
:104D0000B8E70A070BD44A07A7D5C7074007FF0F24
:104D1000C00F7F01000138430343DFB29DE707075F
:104D20008207FF0FD20F5201BF011743102210401C
:104D300007431F43FFB290E7680200207002002083
:104D4000F0B5DE4657464E464546E0B516001D0016
:104D50000F0085B0E74904000E98FFF74FFE0321CE
:104D60003000FBF789FB03212800FBF785FB0022BD
:104D700001213000FBF798FB002201212800FBF7FE
:104D800093FB7B1C00D12837DB4BA570984642462D
:104D90000E9BDA489B1A5A425341E37029230021A3
:104DA000237127706670FCF7C5F80F25502000218D
:104DB000FCF7C0F834236D442B70E378012B00D14D
:104DC000C6E1CF480023217800932A000133FFF782
:104DD00099FE50200021FCF7ADF830232B70E378CA
:104DE000012B00D1B2E1C64800232A0021780093AC
:104DF0000133FFF787FEC3480021FCF79BF85020E2
:104E00000021FCF797F834232B70E378012B00D1B5
:104E10009AE1BB480023217800932A000133FFF771
:104E200071FE50200021FCF785F830232B70E378C9
:104E3000012B00D186E1B24800232A00217800939B
:104E40000133FFF75FFE64200021FCF773F8502068
:104E50000021FCF76FF834232B70E378012B00D18D
:104E60006EE1A7480023217800932A000133FFF761
:104E700049FE50200021FCF75DF830232B70E378C9
:104E8000012B00D15AE19E480023217800932A008B
:104E90000133FFF737FE50200021FCF74BF82423A5
:104EA0002B70E378012B00D146E19548002321784F
:104EB00000932A000133FFF725FE50200021FCF764
:104EC00039F820232B70E378012B00D132E18C4894
:104ED0000023217800932A000133FFF713FE237982
:104EE00050209E06F60FF600F2B29146DF075B07F0
:104EF000DB0F00219A46FCF71DF804234A461343B2
:104F00002B70E378FF0F012B00D10DE17C480023CB
:104F1000217800932A000133FFF7F4FD502000218F
:104F2000FCF708F84B462B70E378012B00D1F9E031
:104F3000734853467F011B011F4340233E431E43DA
:104F40000023217800932A000133FFF7DBFD502076
:104F50000021FBF7EFFF042333432B70E378012B91
:104F600000D1FDE066480023217800932A00013338
:104F7000FFF7C8FD50200021FBF7DCFF2E70E3781F
:104F8000012B00D1EAE05E480023217800932A003B
:104F90000133FFF7B7FD237950209E06F60FF2008C
:104FA0009246D2B293461E07F20F00219F07DE06FB
:104FB0009146FBF7BFFF04235A4613432B70E37857
:104FC000FF0FF60F012B00D1B2E04D4800232178EE
:104FD00000932A000133FFF795FD50200021FBF7D5
:104FE000A9FF5B462B70E378012B00D1B4E0444865
:104FF00053467F0136013E431E434B469F018023AB
:105000003E431E430023217800932A000133FFF71B
:1050100079FD50200021FBF78DFF042333432B70D3
:10502000E378012B00D1A3E03548002321780093D9
:105030002A000133FFF766FD50200021FBF77AFFBD
:105040002E70E378012B00D190E02D4800232178C9
:105050002A0000930133FFF755FD0120FBF7D4FF31
:10506000FA200021C0002679FBF764FF0423B6066E
:10507000F60FF600F7B23B432B70E378012B55D0C7
:105080001F480023217800932A000133FFF73AFDDF
:10509000FA200021C000FBF74DFF2F70E378012BB1
:1050A00058D0174810231E430023217800932A006C
:1050B0000133FFF727FDFA200021C000FBF73AFF7C
:1050C000042333432B70E378012B4DD00C4800238D
:1050D000217800932A000133FFF714FDFA20002104
:1050E000C000FBF727FF2E70E378012B3AD004486D
:1050F0000AE0C046A086010070020020409C00002B
:1051000068020020041000000023217800932A0088
:105110000133FFF7F7FC05B03CBC90469946A24628
:10512000AB46F0BD404604E74046F0E64046A8E7FF
:1051300040464BE74046CBE64046B7E64046A3E64E
:1051400040468FE6404677E6404663E640464BE6FB
:10515000404637E64046A5E7404649E7404613E764
:10516000404600E74046CFE74046B0E740466DE79F
:1051700040465AE7F0B504790500FA2085B0C00032
:105180000021FBF7D7FE0F260423A406E40FE4005A
:10519000E7B23B436E443370EB78012B42D0244896
:1051A00000232978009332000133FFF7ABFCFA208B
:1051B0000021C000FBF7BEFE3770EB78012B2FD02B
:1051C0001B4810231C43002329780093320001332D
:1051D000FFF798FCFA200021C000FBF7ABFE042388
:1051E00023433370EB78012B20D01148002329781A
:1051F000009332000133FFF785FCFA200021C00044
:10520000FBF798FE3470EB78012B0DD00848002393
:105210002978009332000133FFF774FC05B0F0BD2C
:105220000448CEE70348BBE70248F0E70148DDE762
:105230006802002070020020F0B54E464546DE466A
:105240005746E0B50A7885B005008946002A61D046
:1052500004239A463C4B0F269B46002398466E44F7
:1052600001230F2117009C4601242B798F439B06B5
:10527000DB0FDB005BB212011F4350201343002100
:105280002743E1441C43FBF755FE53463B43337031
:10529000EB78E4B2012B54D02C4843462978009394
:1052A00032000123FFF72EFC50200021FBF742FEC5
:1052B0003770EB78012B42D024484346297800937D
:1052C00032000123FFF71EFC50200021FBF732FEC5
:1052D000534623433370EB78012B2ED01B484346B3
:1052E0002978009332000123FFF70CFC00215020A5
:1052F000FBF720FE3470EB782978012B11D0434660
:105300003200009311480123FFF7FCFB4B461A784B
:10531000002AA5D105B03CBC90469946A246AB46B2
:10532000F0BD43463200009307480123FFF7EAFB34
:105330004B461A78002A93D1ECE70348CFE702489E
:10534000BBE75846A9E7C04670020020680200206B
:1053500000B583B00F2A0CD801290AD800290AD039
:10536000403AD1B250220023009201930022FFF76D
:105370004FFC03B000BD803AD1B2F3E7F0B5DE4692
:105380004E46574645469146E0B501268BB0039000
:105390000C001422002105A89B463500FFF7DCF81D
:1053A0004B46D0279D403F067D621420BD61FBF730
:1053B0002BFEA6405B46BD6202967E61002B00D1AB
:1053C0007FE0002301259A4698460126002406E046
:1053D000013401200021FBF7ADFDFF2C3BD04A46F4
:1053E0007B68D3403340AB42F2D07D685346D54012
:1053F0003540032B11D953461E420ED14346DB08DC
:105400009B0005AAD258019252002E2C00D932439B
:1054100005A9CA5001239C46E04401239C46E2446E
:10542000D345D3D1D023029A1B069A614346272B3A
:105430000AD9059D0698079C089E2B181B199B19D5
:10544000099ADBB2934208D00BB03CBC9046994617
:10545000A246AB46F0BD7B68E4E72B021818FEF7C6
:10546000E5FF1949FEF799FF1849071CFEF7D8FF19
:10547000002820D1039B1F60FE232002DB0118407F
:105480008019FEF7D3FF1049FEF787FF1049051C6E
:10549000FEF7C6FF002803D02000FEF7C7FF051C5B
:1054A000039B5D602306CFD580231B069C46039B90
:1054B00065445D60C8E72800FEF7B8FF039B1860ED
:1054C000DAE7BE61C0E7C046000020410000C842E4
:1054D0000000FA4210B5830727D00378002B26D0AE
:1054E0000300032102E01A78002A1CD001330B428A
:1054F000F9D119680F4A104C8A188A4322420FD1F9
:10550000043319680B4A8A188A43224208D10433AB
:105510001968084A8A188A432242F1D000E0013310
:105520001A78002AFBD1181A10BD0300E1E7002009
:10553000FAE7C046FFFEFEFE80808080F8B5C046D8
:1055400001B40248844601BC604700BF71010020DD
:1055500001B40248844601BC604700BF99010020A5
:1055600001B40248844601BC604700BF9901002095
:1055700001B40248844601BC604700BFC10000205E
:1055800054656D70203D20252E31662043000000BB
:1055900048756D203D20252E316625250000000030
:1055A000434F32203D20256925252070706D000075
:1055B000486172647761726520616C61726D20254B
:1055C0006420616C726561647920636C61696D65EA
:1055D0006400000048617264206173736572740036
:1055E0000A2A2A2A2050414E4943202A2A2A0A0000
:1055F0000A000000E82B0010A82B0010A82B0010B8
:10560000E02B0010A82B0010A82B0010A82B0010D6
:10561000A82B0010A82B0010A82B0010A82B0010FE
:10562000D82B0010A82B0010D02B0010A82B001096
:10563000A82B0010922B0010BE2C0010882C0010FC
:10564000B22C0010882C0010A02C0010882C001008
:10565000882C0010882C0010882C0010882C00103A
:10566000882C0010882C0010F02B0010882C0010C3
:10567000882C0010882C0010882C0010882C00101A
:10568000F02B00103C2F0010562B0010562B001052
:10569000562B0010562B0010562B0010562B0010C6
:1056A000562B0010562B0010562B0010562B0010B6
:1056B000562B0010562B0010562B0010562B0010A6
:1056C000562B0010562B0010562B0010562B001096
:1056D000562B0010562B0010562B0010562B001086
:1056E000562B0010562B0010562B0010562B001076
:1056F000562B0010562B0010562B0010562B001066
:10570000562B00108C2F00100C2F00108C2F001027
:10571000562B0010562B0010562B0010562B001045
:10572000562B0010562B0010562B0010562B001035
:10573000562B0010562B0010562B0010562B001025
:10574000562B0010562B0010562B0010562B001015
:105750003C2E0010562B0010562B0010562B00101C
:10576000562B0010562B0010562B0010562B0010F5
:10577000562B0010562B00103C2E0010D02D001080
:105780003C2E00108C2F00100C2F00108C2F0010BE
:10579000562B00103C2E0010562B0010562B0010DC
:1057A000562B0010562B0010562B00103C2E0010CC
:1057B0008A2D0010562B0010562B0010CE2C0010F6
:1057C000562B00103C2E0010562B0010562B0010AC
:1057D0003C2E0010666E6900666E692B00000000AA
:1057E0006E616E00666E692D000000000000000012
:1057F000000000000000F03F000000000000244016
:1058000000000000000059400000000000408F40F0
:10581000000000000088C34000000000006AF8405B
:105820000000000080842E4100000000D01263417F
:105830000000000084D797410000000065CDCD41F5
:1058400006005250BBFF3CB6945800100600525060
:105850003ABCA9118858001006005250E182887F96
:105860007858001006005250D3F07542705800105E
:1058700052656C6561736500626F6F74325F773279
:105880003571303830000000302E3100312E352E89
:10589000300000007069636F000000006573746180
:1058A00063696F6E000000004F6374203131203255
:1058B000303233000D0A00000600525053B4F4A1F8
:1058C000E458001008005250920000005541525414
:1058D00020737464696E00005541525420737464DF
:1058E0006F7574005541525420737464696E202F93
:0858F000207374646F757400ED
:1058F800AC020010A00200109402001040580010E2
:10590800880200104C5800105858001064580010B5
:08591800B8580010C45800103B
:10592000F0B5C646160000B504001F000268EFF38C
:10593000108172B61368002BFCD0BFF35F8F042375
:10594000E356002B36DB2268BFF35F8F0020106028
:1059500081F31088D0220025120655579D4203D1AD
:10596000002004BC9046F0BD002398460CE022685D
:10597000BFF35F8F4146116083F310883000390018
:1059800000F03EF80028EBD12268EFF3108372B6E6
:1059900011680029FCD0BFF35F8F22797F2AE6D9F6
:1059A00025712268BFF35F8F0021116083F3108897
:1059B0000120D6E7D0231B061B6823712368BFF3A1
:1059C0005F8F00221A6081F310880120C9E7C0466A
:1059D0000268EFF3108172B61368002BFCD0BFF39E
:1059E0005F8FFF2303710368BFF35F8F00221A608C
:1059F00081F3108840BF70477047C0460000000028
:105A000001B40248844601BC604700BF3D1000104D
:105A10001000000000000000000001000000000075
:105A20000000000000000200000000000000000074
:105A30000000030000000000000000000000FF0064
:105A40000000000001B5486801318E4600477046ED
:105A500009380149884701BDFD07001014020020E4
:105A60000000000098020020F40300200000000065
:105A700000000000040400200000000000000000FE
:105A80001000000000000000000000000000000006
:105A9000503300004C3300005433000052330000F8
:105AA0004D5300004D4300005334000043340000C8
:105AB00041480010000000008D48001031490010DE
:105AC0000000000000010000004004400000000051
